{
  "contractName": "GNUSToken",
  "abi": [
    {
      "inputs": [],
      "stateMutability": "nonpayable",
      "type": "constructor"
    },
    {
      "anonymous": false,
      "inputs": [
        {
          "indexed": true,
          "internalType": "address",
          "name": "owner",
          "type": "address"
        },
        {
          "indexed": true,
          "internalType": "address",
          "name": "spender",
          "type": "address"
        },
        {
          "indexed": false,
          "internalType": "uint256",
          "name": "value",
          "type": "uint256"
        }
      ],
      "name": "Approval",
      "type": "event"
    },
    {
      "anonymous": false,
      "inputs": [
        {
          "indexed": true,
          "internalType": "address",
          "name": "previousOwner",
          "type": "address"
        },
        {
          "indexed": true,
          "internalType": "address",
          "name": "newOwner",
          "type": "address"
        }
      ],
      "name": "OwnershipTransferred",
      "type": "event"
    },
    {
      "anonymous": false,
      "inputs": [
        {
          "indexed": true,
          "internalType": "address",
          "name": "from",
          "type": "address"
        },
        {
          "indexed": true,
          "internalType": "address",
          "name": "to",
          "type": "address"
        },
        {
          "indexed": false,
          "internalType": "uint256",
          "name": "value",
          "type": "uint256"
        }
      ],
      "name": "Transfer",
      "type": "event"
    },
    {
      "inputs": [],
      "name": "DECIMALS",
      "outputs": [
        {
          "internalType": "uint8",
          "name": "",
          "type": "uint8"
        }
      ],
      "stateMutability": "view",
      "type": "function",
      "constant": true
    },
    {
      "inputs": [],
      "name": "INIT_SUPPLY",
      "outputs": [
        {
          "internalType": "uint256",
          "name": "",
          "type": "uint256"
        }
      ],
      "stateMutability": "view",
      "type": "function",
      "constant": true
    },
    {
      "inputs": [],
      "name": "MAX_SUPPLY",
      "outputs": [
        {
          "internalType": "uint256",
          "name": "",
          "type": "uint256"
        }
      ],
      "stateMutability": "view",
      "type": "function",
      "constant": true
    },
    {
      "inputs": [],
      "name": "NAME",
      "outputs": [
        {
          "internalType": "string",
          "name": "",
          "type": "string"
        }
      ],
      "stateMutability": "view",
      "type": "function",
      "constant": true
    },
    {
      "inputs": [],
      "name": "SYMBOL",
      "outputs": [
        {
          "internalType": "string",
          "name": "",
          "type": "string"
        }
      ],
      "stateMutability": "view",
      "type": "function",
      "constant": true
    },
    {
      "inputs": [
        {
          "internalType": "address",
          "name": "owner",
          "type": "address"
        },
        {
          "internalType": "address",
          "name": "spender",
          "type": "address"
        }
      ],
      "name": "allowance",
      "outputs": [
        {
          "internalType": "uint256",
          "name": "",
          "type": "uint256"
        }
      ],
      "stateMutability": "view",
      "type": "function",
      "constant": true
    },
    {
      "inputs": [
        {
          "internalType": "address",
          "name": "spender",
          "type": "address"
        },
        {
          "internalType": "uint256",
          "name": "amount",
          "type": "uint256"
        }
      ],
      "name": "approve",
      "outputs": [
        {
          "internalType": "bool",
          "name": "",
          "type": "bool"
        }
      ],
      "stateMutability": "nonpayable",
      "type": "function"
    },
    {
      "inputs": [
        {
          "internalType": "address",
          "name": "account",
          "type": "address"
        }
      ],
      "name": "balanceOf",
      "outputs": [
        {
          "internalType": "uint256",
          "name": "",
          "type": "uint256"
        }
      ],
      "stateMutability": "view",
      "type": "function",
      "constant": true
    },
    {
      "inputs": [],
      "name": "decimals",
      "outputs": [
        {
          "internalType": "uint8",
          "name": "",
          "type": "uint8"
        }
      ],
      "stateMutability": "view",
      "type": "function",
      "constant": true
    },
    {
      "inputs": [
        {
          "internalType": "address",
          "name": "spender",
          "type": "address"
        },
        {
          "internalType": "uint256",
          "name": "subtractedValue",
          "type": "uint256"
        }
      ],
      "name": "decreaseAllowance",
      "outputs": [
        {
          "internalType": "bool",
          "name": "",
          "type": "bool"
        }
      ],
      "stateMutability": "nonpayable",
      "type": "function"
    },
    {
      "inputs": [
        {
          "internalType": "address",
          "name": "spender",
          "type": "address"
        },
        {
          "internalType": "uint256",
          "name": "addedValue",
          "type": "uint256"
        }
      ],
      "name": "increaseAllowance",
      "outputs": [
        {
          "internalType": "bool",
          "name": "",
          "type": "bool"
        }
      ],
      "stateMutability": "nonpayable",
      "type": "function"
    },
    {
      "inputs": [],
      "name": "name",
      "outputs": [
        {
          "internalType": "string",
          "name": "",
          "type": "string"
        }
      ],
      "stateMutability": "view",
      "type": "function",
      "constant": true
    },
    {
      "inputs": [],
      "name": "owner",
      "outputs": [
        {
          "internalType": "address",
          "name": "",
          "type": "address"
        }
      ],
      "stateMutability": "view",
      "type": "function",
      "constant": true
    },
    {
      "inputs": [],
      "name": "renounceOwnership",
      "outputs": [],
      "stateMutability": "nonpayable",
      "type": "function"
    },
    {
      "inputs": [],
      "name": "symbol",
      "outputs": [
        {
          "internalType": "string",
          "name": "",
          "type": "string"
        }
      ],
      "stateMutability": "view",
      "type": "function",
      "constant": true
    },
    {
      "inputs": [],
      "name": "totalSupply",
      "outputs": [
        {
          "internalType": "uint256",
          "name": "",
          "type": "uint256"
        }
      ],
      "stateMutability": "view",
      "type": "function",
      "constant": true
    },
    {
      "inputs": [
        {
          "internalType": "address",
          "name": "recipient",
          "type": "address"
        },
        {
          "internalType": "uint256",
          "name": "amount",
          "type": "uint256"
        }
      ],
      "name": "transfer",
      "outputs": [
        {
          "internalType": "bool",
          "name": "",
          "type": "bool"
        }
      ],
      "stateMutability": "nonpayable",
      "type": "function"
    },
    {
      "inputs": [
        {
          "internalType": "address",
          "name": "sender",
          "type": "address"
        },
        {
          "internalType": "address",
          "name": "recipient",
          "type": "address"
        },
        {
          "internalType": "uint256",
          "name": "amount",
          "type": "uint256"
        }
      ],
      "name": "transferFrom",
      "outputs": [
        {
          "internalType": "bool",
          "name": "",
          "type": "bool"
        }
      ],
      "stateMutability": "nonpayable",
      "type": "function"
    },
    {
      "inputs": [
        {
          "internalType": "address",
          "name": "newOwner",
          "type": "address"
        }
      ],
      "name": "transferOwnership",
      "outputs": [],
      "stateMutability": "nonpayable",
      "type": "function"
    },
    {
      "inputs": [
        {
          "internalType": "address",
          "name": "account",
          "type": "address"
        }
      ],
      "name": "isMinter",
      "outputs": [
        {
          "internalType": "bool",
          "name": "",
          "type": "bool"
        }
      ],
      "stateMutability": "view",
      "type": "function",
      "constant": true
    },
    {
      "inputs": [
        {
          "internalType": "address",
          "name": "account",
          "type": "address"
        }
      ],
      "name": "addMinter",
      "outputs": [],
      "stateMutability": "nonpayable",
      "type": "function"
    },
    {
      "inputs": [
        {
          "internalType": "address",
          "name": "account",
          "type": "address"
        }
      ],
      "name": "removeMinter",
      "outputs": [],
      "stateMutability": "nonpayable",
      "type": "function"
    },
    {
      "inputs": [
        {
          "internalType": "address",
          "name": "account",
          "type": "address"
        }
      ],
      "name": "isBurner",
      "outputs": [
        {
          "internalType": "bool",
          "name": "",
          "type": "bool"
        }
      ],
      "stateMutability": "view",
      "type": "function",
      "constant": true
    },
    {
      "inputs": [
        {
          "internalType": "address",
          "name": "account",
          "type": "address"
        }
      ],
      "name": "addBurner",
      "outputs": [],
      "stateMutability": "nonpayable",
      "type": "function"
    },
    {
      "inputs": [
        {
          "internalType": "address",
          "name": "account",
          "type": "address"
        }
      ],
      "name": "removeBurner",
      "outputs": [],
      "stateMutability": "nonpayable",
      "type": "function"
    },
    {
      "inputs": [
        {
          "internalType": "uint256",
          "name": "amount",
          "type": "uint256"
        }
      ],
      "name": "mint",
      "outputs": [],
      "stateMutability": "nonpayable",
      "type": "function"
    },
    {
      "inputs": [
        {
          "internalType": "uint256",
          "name": "amount",
          "type": "uint256"
        }
      ],
      "name": "burn",
      "outputs": [],
      "stateMutability": "nonpayable",
      "type": "function"
    }
  ],
  "bytecode": "0x60806040523480156200001157600080fd5b506040518060400160405280600d81526020016c47656e69757320546f6b656e7360981b81525060405180604001604052806004815260200163474e555360e01b8152506000620000676200010f60201b60201c565b600080546001600160a01b0319166001600160a01b0383169081178255604051929350917f8be0079c531659141344cd1fd0a4f28419497f9722a3daafe3b4186f6b6457e0908290a3508151620000c6906004906020850190620001fb565b508051620000dc906005906020840190620001fb565b50620001099150339050620000f46012600a62000305565b6200010390624c4b40620003d0565b62000113565b62000445565b3390565b6001600160a01b0382166200016e5760405162461bcd60e51b815260206004820152601f60248201527f45524332303a206d696e7420746f20746865207a65726f206164647265737300604482015260640160405180910390fd5b8060036000828254620001829190620002a1565b90915550506001600160a01b03821660009081526001602052604081208054839290620001b1908490620002a1565b90915550506040518181526001600160a01b038316906000907fddf252ad1be2c89b69c2b068fc378daa952ba7f163c4a11628f55a4df523b3ef9060200160405180910390a35050565b8280546200020990620003f2565b90600052602060002090601f0160209004810192826200022d576000855562000278565b82601f106200024857805160ff191683800117855562000278565b8280016001018555821562000278579182015b82811115620002785782518255916020019190600101906200025b565b50620002869291506200028a565b5090565b5b808211156200028657600081556001016200028b565b60008219821115620002b757620002b76200042f565b500190565b600181815b80851115620002fd578160001904821115620002e157620002e16200042f565b80851615620002ef57918102915b93841c9390800290620002c1565b509250929050565b60006200031383836200031a565b9392505050565b6000826200032b57506001620003ca565b816200033a57506000620003ca565b81600181146200035357600281146200035e576200037e565b6001915050620003ca565b60ff8411156200037257620003726200042f565b50506001821b620003ca565b5060208310610133831016604e8410600b8410161715620003a3575081810a620003ca565b620003af8383620002bc565b8060001904821115620003c657620003c66200042f565b0290505b92915050565b6000816000190483118215151615620003ed57620003ed6200042f565b500290565b600181811c908216806200040757607f821691505b602082108114156200042957634e487b7160e01b600052602260045260246000fd5b50919050565b634e487b7160e01b600052601160045260246000fd5b6115d680620004556000396000f3fe608060405234801561001057600080fd5b50600436106101b95760003560e01c8063715018a6116100f9578063a457c2d711610097578063dd62ed3e11610071578063dd62ed3e146103d7578063f2fde38b14610410578063f44637ba14610423578063f76f8d781461043657600080fd5b8063a457c2d714610385578063a9059cbb14610398578063aa271e1a146103ab57600080fd5b806395d89b41116100d357806395d89b411461031b578063983b2d5614610323578063a0712d6814610336578063a3f4df7e1461034957600080fd5b8063715018a6146102f05780638da5cb5b146102f8578063956cc8591461031357600080fd5b80633092afd5116101665780633950935111610140578063395093511461027557806342966c68146102885780634334614a1461029b57806370a08231146102c757600080fd5b80633092afd514610253578063313ce5671461026657806332cb6b0c1461026d57600080fd5b806318160ddd1161019757806318160ddd1461021457806323b872dd146102265780632e0f26251461023957600080fd5b806302846858146101be57806306fdde03146101d3578063095ea7b3146101f1575b600080fd5b6101d16101cc3660046112dc565b610472565b005b6101db6104f2565b6040516101e891906113c3565b60405180910390f35b6102046101ff36600461136a565b610584565b60405190151581526020016101e8565b6003545b6040519081526020016101e8565b61020461023436600461132f565b61059b565b610241601281565b60405160ff90911681526020016101e8565b6101d16102613660046112dc565b610661565b6012610241565b6102186106dc565b61020461028336600461136a565b6106f9565b6101d1610296366004611393565b610730565b6102046102a93660046112dc565b6001600160a01b031660009081526007602052604090205460ff1690565b6102186102d53660046112dc565b6001600160a01b031660009081526001602052604090205490565b6101d16107a7565b6000546040516001600160a01b0390911681526020016101e8565b610218610858565b6101db610871565b6101d16103313660046112dc565b610880565b6101d1610344366004611393565b6108fe565b6101db6040518060400160405280600d81526020017f47656e69757320546f6b656e730000000000000000000000000000000000000081525081565b61020461039336600461136a565b610a65565b6102046103a636600461136a565b610b18565b6102046103b93660046112dc565b6001600160a01b031660009081526006602052604090205460ff1690565b6102186103e53660046112fd565b6001600160a01b03918216600090815260026020908152604080832093909416825291909152205490565b6101d161041e3660046112dc565b610b25565b6101d16104313660046112dc565b610c63565b6101db6040518060400160405280600481526020017f474e55530000000000000000000000000000000000000000000000000000000081525081565b6000546001600160a01b031633146104d15760405162461bcd60e51b815260206004820181905260248201527f4f776e61626c653a2063616c6c6572206973206e6f7420746865206f776e657260448201526064015b60405180910390fd5b6001600160a01b03166000908152600760205260409020805460ff19169055565b6060600480546105019061154f565b80601f016020809104026020016040519081016040528092919081815260200182805461052d9061154f565b801561057a5780601f1061054f5761010080835404028352916020019161057a565b820191906000526020600020905b81548152906001019060200180831161055d57829003601f168201915b5050505050905090565b6000610591338484610ce1565b5060015b92915050565b60006105a8848484610e3a565b6001600160a01b0384166000908152600260209081526040808320338452909152902054828110156106425760405162461bcd60e51b815260206004820152602860248201527f45524332303a207472616e7366657220616d6f756e742065786365656473206160448201527f6c6c6f77616e636500000000000000000000000000000000000000000000000060648201526084016104c8565b61065685336106518685611538565b610ce1565b506001949350505050565b6000546001600160a01b031633146106bb5760405162461bcd60e51b815260206004820181905260248201527f4f776e61626c653a2063616c6c6572206973206e6f7420746865206f776e657260448201526064016104c8565b6001600160a01b03166000908152600660205260409020805460ff19169055565b6106e86012600a611471565b6106f6906302faf080611519565b81565b3360008181526002602090815260408083206001600160a01b03871684529091528120549091610591918590610651908690611416565b3360009081526007602052604090205460ff1661079a5760405162461bcd60e51b815260206004820152602260248201527f596f7520617265206e6f7420726567697374657265642061732061206275726e60448201526132b960f11b60648201526084016104c8565b6107a4338261105b565b50565b6000546001600160a01b031633146108015760405162461bcd60e51b815260206004820181905260248201527f4f776e61626c653a2063616c6c6572206973206e6f7420746865206f776e657260448201526064016104c8565b600080546040516001600160a01b03909116907f8be0079c531659141344cd1fd0a4f28419497f9722a3daafe3b4186f6b6457e0908390a36000805473ffffffffffffffffffffffffffffffffffffffff19169055565b6108646012600a611471565b6106f690624c4b40611519565b6060600580546105019061154f565b6000546001600160a01b031633146108da5760405162461bcd60e51b815260206004820181905260248201527f4f776e61626c653a2063616c6c6572206973206e6f7420746865206f776e657260448201526064016104c8565b6001600160a01b03166000908152600660205260409020805460ff19166001179055565b3360009081526006602052604090205460ff166109685760405162461bcd60e51b815260206004820152602260248201527f596f7520617265206e6f7420726567697374657265642061732061206d696e7460448201526132b960f11b60648201526084016104c8565b6040517f70a0823100000000000000000000000000000000000000000000000000000000815230600482018190526000916370a082319060240160206040518083038186803b1580156109ba57600080fd5b505afa1580156109ce573d6000803e3d6000fd5b505050506040513d601f19601f820116820180604052508101906109f291906113ab565b905080826109ff60035490565b610a099190611416565b1115610a575760405162461bcd60e51b815260206004820152601960248201527f45524332304361707065643a206361702065786365656465640000000000000060448201526064016104c8565b610a6133836111e1565b5050565b3360009081526002602090815260408083206001600160a01b038616845290915281205482811015610aff5760405162461bcd60e51b815260206004820152602560248201527f45524332303a2064656372656173656420616c6c6f77616e63652062656c6f7760448201527f207a65726f00000000000000000000000000000000000000000000000000000060648201526084016104c8565b610b0e33856106518685611538565b5060019392505050565b6000610591338484610e3a565b6000546001600160a01b03163314610b7f5760405162461bcd60e51b815260206004820181905260248201527f4f776e61626c653a2063616c6c6572206973206e6f7420746865206f776e657260448201526064016104c8565b6001600160a01b038116610bfb5760405162461bcd60e51b815260206004820152602660248201527f4f776e61626c653a206e6577206f776e657220697320746865207a65726f206160448201527f646472657373000000000000000000000000000000000000000000000000000060648201526084016104c8565b600080546040516001600160a01b03808516939216917f8be0079c531659141344cd1fd0a4f28419497f9722a3daafe3b4186f6b6457e091a36000805473ffffffffffffffffffffffffffffffffffffffff19166001600160a01b0392909216919091179055565b6000546001600160a01b03163314610cbd5760405162461bcd60e51b815260206004820181905260248201527f4f776e61626c653a2063616c6c6572206973206e6f7420746865206f776e657260448201526064016104c8565b6001600160a01b03166000908152600760205260409020805460ff19166001179055565b6001600160a01b038316610d5c5760405162461bcd60e51b8152602060048201526024808201527f45524332303a20617070726f76652066726f6d20746865207a65726f2061646460448201527f726573730000000000000000000000000000000000000000000000000000000060648201526084016104c8565b6001600160a01b038216610dd85760405162461bcd60e51b815260206004820152602260248201527f45524332303a20617070726f766520746f20746865207a65726f20616464726560448201527f737300000000000000000000000000000000000000000000000000000000000060648201526084016104c8565b6001600160a01b0383811660008181526002602090815260408083209487168084529482529182902085905590518481527f8c5be1e5ebec7d5bd14f71427d1e84f3dd0314c0f7b2291e5b200ac8c7c3b92591015b60405180910390a3505050565b6001600160a01b038316610eb65760405162461bcd60e51b815260206004820152602560248201527f45524332303a207472616e736665722066726f6d20746865207a65726f20616460448201527f647265737300000000000000000000000000000000000000000000000000000060648201526084016104c8565b6001600160a01b038216610f325760405162461bcd60e51b815260206004820152602360248201527f45524332303a207472616e7366657220746f20746865207a65726f206164647260448201527f657373000000000000000000000000000000000000000000000000000000000060648201526084016104c8565b6001600160a01b03831660009081526001602052604090205481811015610fc15760405162461bcd60e51b815260206004820152602660248201527f45524332303a207472616e7366657220616d6f756e742065786365656473206260448201527f616c616e6365000000000000000000000000000000000000000000000000000060648201526084016104c8565b610fcb8282611538565b6001600160a01b038086166000908152600160205260408082209390935590851681529081208054849290611001908490611416565b92505081905550826001600160a01b0316846001600160a01b03167fddf252ad1be2c89b69c2b068fc378daa952ba7f163c4a11628f55a4df523b3ef8460405161104d91815260200190565b60405180910390a350505050565b6001600160a01b0382166110d75760405162461bcd60e51b815260206004820152602160248201527f45524332303a206275726e2066726f6d20746865207a65726f2061646472657360448201527f730000000000000000000000000000000000000000000000000000000000000060648201526084016104c8565b6001600160a01b038216600090815260016020526040902054818110156111665760405162461bcd60e51b815260206004820152602260248201527f45524332303a206275726e20616d6f756e7420657863656564732062616c616e60448201527f636500000000000000000000000000000000000000000000000000000000000060648201526084016104c8565b6111708282611538565b6001600160a01b0384166000908152600160205260408120919091556003805484929061119e908490611538565b90915550506040518281526000906001600160a01b038516907fddf252ad1be2c89b69c2b068fc378daa952ba7f163c4a11628f55a4df523b3ef90602001610e2d565b6001600160a01b0382166112375760405162461bcd60e51b815260206004820152601f60248201527f45524332303a206d696e7420746f20746865207a65726f20616464726573730060448201526064016104c8565b80600360008282546112499190611416565b90915550506001600160a01b03821660009081526001602052604081208054839290611276908490611416565b90915550506040518181526001600160a01b038316906000907fddf252ad1be2c89b69c2b068fc378daa952ba7f163c4a11628f55a4df523b3ef9060200160405180910390a35050565b80356001600160a01b03811681146112d757600080fd5b919050565b6000602082840312156112ed578081fd5b6112f6826112c0565b9392505050565b6000806040838503121561130f578081fd5b611318836112c0565b9150611326602084016112c0565b90509250929050565b600080600060608486031215611343578081fd5b61134c846112c0565b925061135a602085016112c0565b9150604084013590509250925092565b6000806040838503121561137c578182fd5b611385836112c0565b946020939093013593505050565b6000602082840312156113a4578081fd5b5035919050565b6000602082840312156113bc578081fd5b5051919050565b6000602080835283518082850152825b818110156113ef578581018301518582016040015282016113d3565b818111156114005783604083870101525b50601f01601f1916929092016040019392505050565b600082198211156114295761142961158a565b500190565b600181815b8085111561146957816000190482111561144f5761144f61158a565b8085161561145c57918102915b93841c9390800290611433565b509250929050565b60006112f6838360008261148757506001610595565b8161149457506000610595565b81600181146114aa57600281146114b4576114d0565b6001915050610595565b60ff8411156114c5576114c561158a565b50506001821b610595565b5060208310610133831016604e8410600b84101617156114f3575081810a610595565b6114fd838361142e565b80600019048211156115115761151161158a565b029392505050565b60008160001904831182151516156115335761153361158a565b500290565b60008282101561154a5761154a61158a565b500390565b600181811c9082168061156357607f821691505b6020821081141561158457634e487b7160e01b600052602260045260246000fd5b50919050565b634e487b7160e01b600052601160045260246000fdfea26469706673582212205aa54a74a985ee39d742a21775e9fd4a0f275a4ef0755b11d3f3ed3a654a115564736f6c63430008040033",
  "immutableReferences": {},
  "source": "pragma solidity ^0.8.0;\r\n\r\n// SPDX-License-Identifier: MIT\r\n/**\r\n * @dev Wrappers over Solidity's arithmetic operations with added overflow\r\n * checks.\r\n *\r\n * Arithmetic operations in Solidity wrap on overflow. This can easily result\r\n * in bugs, because programmers usually assume that an overflow raises an\r\n * error, which is the standard behavior in high level programming languages.\r\n * `SafeMath` restores this intuition by reverting the transaction when an\r\n * operation overflows.\r\n *\r\n * Using this library instead of the unchecked operations eliminates an entire\r\n * class of bugs, so it's recommended to use it always.\r\n */\r\n\r\nimport \"@openzeppelin/contracts/token/ERC20/ERC20.sol\";\r\nimport \"@openzeppelin/contracts/token/ERC20/IERC20.sol\";\r\nimport \"@openzeppelin/contracts/access/Ownable.sol\";\r\n\r\ncontract GNUSToken is Ownable, ERC20 {\r\n    // modify token name\r\n    string public constant NAME = \"Genius Tokens\";\r\n    // modify token symbol\r\n    string public constant SYMBOL = \"GNUS\";\r\n    // modify token decimal\r\n    uint8 public constant DECIMALS = 18;\r\n    // modify initial token supply\r\n    uint256 public constant INIT_SUPPLY = 5000000 * (10**uint256(DECIMALS)); // 5 million tokens\r\n    uint256 public constant MAX_SUPPLY = 50000000 * (10**uint256(DECIMALS)); // 50 million tokens\r\n    \r\n    mapping (address => bool) _minters;\r\n    mapping (address => bool) _burners;\r\n\r\n    function isMinter(address account) public view returns(bool) {\r\n        return _minters[account];\r\n    }\r\n\r\n    function addMinter(address account) public onlyOwner {\r\n        _minters[account] = true;\r\n    }\r\n\r\n    function removeMinter(address account) public onlyOwner {\r\n        _minters[account] = false;\r\n    }\r\n\r\n    function isBurner(address account) public view returns(bool) {\r\n        return _burners[account];\r\n    }\r\n\r\n    function addBurner(address account) public onlyOwner {\r\n        _burners[account] = true;\r\n    }\r\n\r\n    function removeBurner(address account) public onlyOwner {\r\n        _burners[account] = false;\r\n    }\r\n\r\n    constructor() ERC20(NAME, SYMBOL) {\r\n        _mint(msg.sender, INIT_SUPPLY);\r\n    }\r\n\r\n    function mint(uint256 amount) public {\r\n        require(isMinter(msg.sender), \"You are not registered as a minter\");\r\n        uint256 current_supply = IERC20(address(this)).balanceOf(address(this));\r\n        require(ERC20.totalSupply() + amount <= current_supply, \"ERC20Capped: cap exceeded\");\r\n        _mint(msg.sender, amount);\r\n    }\r\n\r\n    function burn(uint256 amount) public {\r\n        require(isBurner(msg.sender), \"You are not registered as a burner\");\r\n        _burn(msg.sender, amount);\r\n    }\r\n}",
  "sourcePath": "A:/project_2021/0521-GeniusTokens/work/geniustokens/contracts/GNUSToken.sol",
  "compiler": {
    "name": "solc",
    "version": "0.8.4+commit.c7e474f2.Emscripten.clang"
  },
  "schemaVersion": "3.3.4",
  "updatedAt": "2021-05-31T18:20:23.839Z",
  "networkType": "ethereum",
  "devdoc": {
    "kind": "dev",
    "methods": {
      "allowance(address,address)": {
        "details": "See {IERC20-allowance}."
      },
      "approve(address,uint256)": {
        "details": "See {IERC20-approve}. Requirements: - `spender` cannot be the zero address."
      },
      "balanceOf(address)": {
        "details": "See {IERC20-balanceOf}."
      },
      "decimals()": {
        "details": "Returns the number of decimals used to get its user representation. For example, if `decimals` equals `2`, a balance of `505` tokens should be displayed to a user as `5,05` (`505 / 10 ** 2`). Tokens usually opt for a value of 18, imitating the relationship between Ether and Wei. This is the value {ERC20} uses, unless this function is overridden; NOTE: This information is only used for _display_ purposes: it in no way affects any of the arithmetic of the contract, including {IERC20-balanceOf} and {IERC20-transfer}."
      },
      "decreaseAllowance(address,uint256)": {
        "details": "Atomically decreases the allowance granted to `spender` by the caller. This is an alternative to {approve} that can be used as a mitigation for problems described in {IERC20-approve}. Emits an {Approval} event indicating the updated allowance. Requirements: - `spender` cannot be the zero address. - `spender` must have allowance for the caller of at least `subtractedValue`."
      },
      "increaseAllowance(address,uint256)": {
        "details": "Atomically increases the allowance granted to `spender` by the caller. This is an alternative to {approve} that can be used as a mitigation for problems described in {IERC20-approve}. Emits an {Approval} event indicating the updated allowance. Requirements: - `spender` cannot be the zero address."
      },
      "name()": {
        "details": "Returns the name of the token."
      },
      "owner()": {
        "details": "Returns the address of the current owner."
      },
      "renounceOwnership()": {
        "details": "Leaves the contract without owner. It will not be possible to call `onlyOwner` functions anymore. Can only be called by the current owner. NOTE: Renouncing ownership will leave the contract without an owner, thereby removing any functionality that is only available to the owner."
      },
      "symbol()": {
        "details": "Returns the symbol of the token, usually a shorter version of the name."
      },
      "totalSupply()": {
        "details": "See {IERC20-totalSupply}."
      },
      "transfer(address,uint256)": {
        "details": "See {IERC20-transfer}. Requirements: - `recipient` cannot be the zero address. - the caller must have a balance of at least `amount`."
      },
      "transferFrom(address,address,uint256)": {
        "details": "See {IERC20-transferFrom}. Emits an {Approval} event indicating the updated allowance. This is not required by the EIP. See the note at the beginning of {ERC20}. Requirements: - `sender` and `recipient` cannot be the zero address. - `sender` must have a balance of at least `amount`. - the caller must have allowance for ``sender``'s tokens of at least `amount`."
      },
      "transferOwnership(address)": {
        "details": "Transfers ownership of the contract to a new account (`newOwner`). Can only be called by the current owner."
      }
    },
    "version": 1
  },
  "userdoc": {
    "kind": "user",
    "methods": {},
    "version": 1
  }
}