{
  "contractName": "ICOContract",
  "abi": [
    {
      "inputs": [
        {
          "internalType": "address",
          "name": "_gnusTokenAddress",
          "type": "address"
        },
        {
          "internalType": "uint256[]",
          "name": "_initLimits",
          "type": "uint256[]"
        },
        {
          "internalType": "uint256[]",
          "name": "_initRates",
          "type": "uint256[]"
        }
      ],
      "stateMutability": "nonpayable",
      "type": "constructor"
    },
    {
      "anonymous": false,
      "inputs": [
        {
          "indexed": true,
          "internalType": "address",
          "name": "previousOwner",
          "type": "address"
        },
        {
          "indexed": true,
          "internalType": "address",
          "name": "newOwner",
          "type": "address"
        }
      ],
      "name": "OwnershipTransferred",
      "type": "event"
    },
    {
      "inputs": [],
      "name": "gnusAddress",
      "outputs": [
        {
          "internalType": "address",
          "name": "",
          "type": "address"
        }
      ],
      "stateMutability": "view",
      "type": "function",
      "constant": true
    },
    {
      "inputs": [],
      "name": "gnusSoldAmount",
      "outputs": [
        {
          "internalType": "uint256",
          "name": "",
          "type": "uint256"
        }
      ],
      "stateMutability": "view",
      "type": "function",
      "constant": true
    },
    {
      "inputs": [
        {
          "internalType": "uint256",
          "name": "",
          "type": "uint256"
        }
      ],
      "name": "limits",
      "outputs": [
        {
          "internalType": "uint256",
          "name": "",
          "type": "uint256"
        }
      ],
      "stateMutability": "view",
      "type": "function",
      "constant": true
    },
    {
      "inputs": [],
      "name": "owner",
      "outputs": [
        {
          "internalType": "address",
          "name": "",
          "type": "address"
        }
      ],
      "stateMutability": "view",
      "type": "function",
      "constant": true
    },
    {
      "inputs": [
        {
          "internalType": "uint256",
          "name": "",
          "type": "uint256"
        }
      ],
      "name": "rates",
      "outputs": [
        {
          "internalType": "uint256",
          "name": "",
          "type": "uint256"
        }
      ],
      "stateMutability": "view",
      "type": "function",
      "constant": true
    },
    {
      "inputs": [],
      "name": "renounceOwnership",
      "outputs": [],
      "stateMutability": "nonpayable",
      "type": "function"
    },
    {
      "inputs": [
        {
          "internalType": "address",
          "name": "newOwner",
          "type": "address"
        }
      ],
      "name": "transferOwnership",
      "outputs": [],
      "stateMutability": "nonpayable",
      "type": "function"
    },
    {
      "stateMutability": "payable",
      "type": "receive",
      "payable": true
    },
    {
      "inputs": [],
      "name": "gnusBalance",
      "outputs": [
        {
          "internalType": "uint256",
          "name": "",
          "type": "uint256"
        }
      ],
      "stateMutability": "view",
      "type": "function",
      "constant": true
    },
    {
      "inputs": [],
      "name": "ethBalance",
      "outputs": [
        {
          "internalType": "uint256",
          "name": "",
          "type": "uint256"
        }
      ],
      "stateMutability": "view",
      "type": "function",
      "constant": true
    },
    {
      "inputs": [],
      "name": "defineStep",
      "outputs": [
        {
          "internalType": "uint256",
          "name": "",
          "type": "uint256"
        }
      ],
      "stateMutability": "view",
      "type": "function",
      "constant": true
    },
    {
      "inputs": [
        {
          "internalType": "uint256[][]",
          "name": "convTable",
          "type": "uint256[][]"
        }
      ],
      "name": "dynamicConvTable",
      "outputs": [],
      "stateMutability": "nonpayable",
      "type": "function"
    },
    {
      "inputs": [
        {
          "internalType": "address",
          "name": "_address",
          "type": "address"
        },
        {
          "internalType": "uint256",
          "name": "_amount",
          "type": "uint256"
        }
      ],
      "name": "withdrawETH",
      "outputs": [],
      "stateMutability": "nonpayable",
      "type": "function"
    },
    {
      "inputs": [
        {
          "internalType": "address",
          "name": "to",
          "type": "address"
        },
        {
          "internalType": "uint256",
          "name": "amount",
          "type": "uint256"
        }
      ],
      "name": "withdrawGNUS",
      "outputs": [],
      "stateMutability": "nonpayable",
      "type": "function"
    }
  ],
  "bytecode": "0x60806040523480156200001157600080fd5b506040516200120f3803806200120f8339810160408190526200003491620001fb565b600062000040620000ef565b600080546001600160a01b0319166001600160a01b0383169081178255604051929350917f8be0079c531659141344cd1fd0a4f28419497f9722a3daafe3b4186f6b6457e0908290a350600280546001600160a01b0385166001600160a01b0319918216811790925560018054909116909117905560006003558151620000cf906004906020850190620000f3565b508051620000e5906005906020840190620000f3565b5050505062000297565b3390565b82805482825590600052602060002090810192821562000131579160200282015b828111156200013157825182559160200191906001019062000114565b506200013f92915062000143565b5090565b5b808211156200013f576000815560010162000144565b600082601f8301126200016b578081fd5b815160206001600160401b03808311156200018a576200018a62000281565b81830260405183828201018181108482111715620001ac57620001ac62000281565b60405284815283810192508684018288018501891015620001cb578687fd5b8692505b85831015620001ef578051845292840192600192909201918401620001cf565b50979650505050505050565b60008060006060848603121562000210578283fd5b83516001600160a01b038116811462000227578384fd5b60208501519093506001600160401b038082111562000244578384fd5b62000252878388016200015a565b9350604086015191508082111562000268578283fd5b5062000277868287016200015a565b9150509250925092565b634e487b7160e01b600052604160045260246000fd5b610f6880620002a76000396000f3fe6080604052600436106100d65760003560e01c80638da5cb5b1161007f578063dd418ae211610059578063dd418ae214610303578063e409137a14610323578063f0454f9314610338578063f2fde38b14610358576101fb565b80638da5cb5b146102b9578063963e8217146102ce578063d9330abd146102e3576101fb565b806349c6bee5116100b057806349c6bee51461027a5780634e6630b01461028f578063715018a6146102a4576101fb565b806320e9daf11461020057806344b7102f146102365780634782f77914610258576101fb565b366101fb57600034116101045760405162461bcd60e51b81526004016100fb90610df0565b60405180910390fd5b600061010e610378565b905060006005828154811061013357634e487b7160e01b600052603260045260246000fd5b9060005260206000200154346101499190610eb5565b90508061015461041e565b10156101725760405162461bcd60e51b81526004016100fb90610c93565b60015460405163a9059cbb60e01b81526001600160a01b039091169063a9059cbb906101a49033908590600401610c7a565b602060405180830381600087803b1580156101be57600080fd5b505af11580156101d2573d6000803e3d6000fd5b505050506040513d601f19601f820116820180604052508101906101f69190610c16565b505050005b600080fd5b34801561020c57600080fd5b5061022061021b366004610c36565b6104bd565b60405161022d9190610e5e565b60405180910390f35b34801561024257600080fd5b5061024b6104de565b60405161022d9190610c66565b34801561026457600080fd5b50610278610273366004610b05565b6104ed565b005b34801561028657600080fd5b50610220610378565b34801561029b57600080fd5b506102206105b2565b3480156102b057600080fd5b506102786105b6565b3480156102c557600080fd5b5061024b61064c565b3480156102da57600080fd5b5061022061065b565b3480156102ef57600080fd5b506102786102fe366004610b2e565b610661565b34801561030f57600080fd5b5061022061031e366004610c36565b6108fc565b34801561032f57600080fd5b5061022061041e565b34801561034457600080fd5b50610278610353366004610b05565b61090c565b34801561036457600080fd5b50610278610373366004610ae4565b6109f7565b600080805b60045461038c90600190610ed4565b81101561041857600354600582815481106103b757634e487b7160e01b600052603260045260246000fd5b9060005260206000200154600483815481106103e357634e487b7160e01b600052603260045260246000fd5b90600052602060002001546103f89190610eb5565b111561040657809150610418565b8061041081610eeb565b91505061037d565b50905090565b6001546040517f70a082310000000000000000000000000000000000000000000000000000000081526000916001600160a01b0316906370a0823190610468903090600401610c66565b60206040518083038186803b15801561048057600080fd5b505afa158015610494573d6000803e3d6000fd5b505050506040513d601f19601f820116820180604052508101906104b89190610c4e565b905090565b600481815481106104cd57600080fd5b600091825260209091200154905081565b6002546001600160a01b031681565b6104f5610ac4565b6001600160a01b031661050661064c565b6001600160a01b03161461052c5760405162461bcd60e51b81526004016100fb90610dbb565b6105346105b2565b61054682670de0b6b3a7640000610eb5565b11156105645760405162461bcd60e51b81526004016100fb90610e27565b816001600160a01b0381166108fc61058484670de0b6b3a7640000610eb5565b6040518115909202916000818181858888f193505050501580156105ac573d6000803e3d6000fd5b50505050565b4790565b6105be610ac4565b6001600160a01b03166105cf61064c565b6001600160a01b0316146105f55760405162461bcd60e51b81526004016100fb90610dbb565b600080546040516001600160a01b03909116907f8be0079c531659141344cd1fd0a4f28419497f9722a3daafe3b4186f6b6457e0908390a36000805473ffffffffffffffffffffffffffffffffffffffff19169055565b6000546001600160a01b031690565b60035481565b610669610ac4565b6001600160a01b031661067a61064c565b6001600160a01b0316146106a05760405162461bcd60e51b81526004016100fb90610dbb565b60008151116106c15760405162461bcd60e51b81526004016100fb90610d4d565b60005b81518110156107dd578181815181106106ed57634e487b7160e01b600052603260045260246000fd5b60200260200101515160021480156107545750600082828151811061072257634e487b7160e01b600052603260045260246000fd5b602002602001015160008151811061074a57634e487b7160e01b600052603260045260246000fd5b6020026020010151115b80156107af5750600082828151811061077d57634e487b7160e01b600052603260045260246000fd5b60200260200101516001815181106107a557634e487b7160e01b600052603260045260246000fd5b6020026020010151115b6107cb5760405162461bcd60e51b81526004016100fb90610d84565b806107d581610eeb565b9150506106c4565b5060005b81518110156108f85781818151811061080a57634e487b7160e01b600052603260045260246000fd5b602002602001015160008151811061083257634e487b7160e01b600052603260045260246000fd5b60200260200101516004828154811061085b57634e487b7160e01b600052603260045260246000fd5b906000526020600020018190555081818151811061088957634e487b7160e01b600052603260045260246000fd5b60200260200101516001815181106108b157634e487b7160e01b600052603260045260246000fd5b6020026020010151600582815481106108da57634e487b7160e01b600052603260045260246000fd5b600091825260209091200155806108f081610eeb565b9150506107e1565b5050565b600581815481106104cd57600080fd5b610914610ac4565b6001600160a01b031661092561064c565b6001600160a01b03161461094b5760405162461bcd60e51b81526004016100fb90610dbb565b808061095561041e565b10156109735760405162461bcd60e51b81526004016100fb90610c93565b60015460405163a9059cbb60e01b81526001600160a01b039091169063a9059cbb906109a59086908590600401610c7a565b602060405180830381600087803b1580156109bf57600080fd5b505af11580156109d3573d6000803e3d6000fd5b505050506040513d601f19601f820116820180604052508101906105ac9190610c16565b6109ff610ac4565b6001600160a01b0316610a1061064c565b6001600160a01b031614610a365760405162461bcd60e51b81526004016100fb90610dbb565b6001600160a01b038116610a5c5760405162461bcd60e51b81526004016100fb90610cf0565b600080546040516001600160a01b03808516939216917f8be0079c531659141344cd1fd0a4f28419497f9722a3daafe3b4186f6b6457e091a36000805473ffffffffffffffffffffffffffffffffffffffff19166001600160a01b0392909216919091179055565b3390565b80356001600160a01b0381168114610adf57600080fd5b919050565b600060208284031215610af5578081fd5b610afe82610ac8565b9392505050565b60008060408385031215610b17578081fd5b610b2083610ac8565b946020939093013593505050565b60006020808385031215610b40578182fd5b823567ffffffffffffffff811115610b56578283fd5b8301601f81018513610b66578283fd5b8035610b79610b7482610e91565b610e67565b81815283810190838501865b84811015610c0857813586018a603f820112610b9f578889fd5b878101356040610bb1610b7483610e91565b808382528b820191508285018f848e87028801011115610bcf578d8efd5b8d95505b84861015610bf1578035835260019590950194918c01918c01610bd3565b508852505050938701935090860190600101610b85565b509098975050505050505050565b600060208284031215610c27578081fd5b81518015158114610afe578182fd5b600060208284031215610c47578081fd5b5035919050565b600060208284031215610c5f578081fd5b5051919050565b6001600160a01b0391909116815260200190565b6001600160a01b03929092168252602082015260400190565b60208082526021908201527f596f7520686176652073656e7420746f6f206d7563682065746820616d6f756e60408201527f7400000000000000000000000000000000000000000000000000000000000000606082015260800190565b60208082526026908201527f4f776e61626c653a206e6577206f776e657220697320746865207a65726f206160408201527f6464726573730000000000000000000000000000000000000000000000000000606082015260800190565b6020808252600c908201527f496e76616c696420646174610000000000000000000000000000000000000000604082015260600190565b60208082526011908201527f496e76616c69642064617461206974656d000000000000000000000000000000604082015260600190565b6020808252818101527f4f776e61626c653a2063616c6c6572206973206e6f7420746865206f776e6572604082015260600190565b60208082526016908201527f596f7520686176652073656e7420302065746865722100000000000000000000604082015260600190565b60208082526016908201527f4e6f7420656e6f756768206574682062616c616e636500000000000000000000604082015260600190565b90815260200190565b60405181810167ffffffffffffffff81118282101715610e8957610e89610f1c565b604052919050565b600067ffffffffffffffff821115610eab57610eab610f1c565b5060209081020190565b6000816000190483118215151615610ecf57610ecf610f06565b500290565b600082821015610ee657610ee6610f06565b500390565b6000600019821415610eff57610eff610f06565b5060010190565b634e487b7160e01b600052601160045260246000fd5b634e487b7160e01b600052604160045260246000fdfea264697066735822122005da274431c8a0a15e23e999e5cab34cbb8c5c0dac2b6f6b3591b3c98c63991a64736f6c63430008000033",
  "immutableReferences": {},
  "source": "// SPDX-License-Identifier: MIT\r\n\r\npragma solidity ^0.8.0;\r\n\r\nimport \"@openzeppelin/contracts/token/ERC20/IERC20.sol\";\r\nimport \"@openzeppelin/contracts/access/Ownable.sol\";\r\nimport \"./Math.sol\";\r\nimport \"./SafeMath.sol\";\r\n\r\ncontract ICOContract is Ownable {\r\n\r\n    IERC20 private gnusToken;\r\n    address public gnusAddress;\r\n    uint256 public gnusSoldAmount;\r\n\r\n    uint256[] public limits;\r\n    uint256[] public rates;\r\n\r\n    constructor (address _gnusTokenAddress, uint256[] memory _initLimits, uint256[] memory _initRates) {\r\n        // import GNUS token contract and define the balance\r\n        gnusAddress = _gnusTokenAddress;\r\n        gnusToken = IERC20(_gnusTokenAddress);\r\n        gnusSoldAmount = 0;\r\n\r\n        // init convTable\r\n        limits = _initLimits;  // amount of eth\r\n        rates = _initRates;  // amount of gnus token for 1 eth\r\n    }\r\n\r\n    function gnusBalance() public view returns(uint256) {\r\n        return gnusToken.balanceOf(address(this));\r\n    }\r\n\r\n    function ethBalance() public view returns(uint256) {\r\n        return address(this).balance;\r\n    }\r\n\r\n    function defineStep() public view returns(uint256) {\r\n        uint256 step = 0;\r\n        for (uint256 i = 0; i < limits.length - 1; i++) {\r\n            if (limits[i] * rates[i] > gnusSoldAmount) {\r\n                step = i;\r\n                break;\r\n            }\r\n        }\r\n        return step;\r\n    }\r\n\r\n    /**\r\n    e.g. [[12500, 1000], [12500, 800], [12500, 640], [12500, 512]]\r\n    limits = [12500, 12500, 12500, 12500]\r\n    rates = [1000, 800, 640, 512]\r\n    */ \r\n    function dynamicConvTable(uint256[][] memory convTable) external onlyOwner {\r\n        require(convTable.length > 0, \"Invalid data\");\r\n        for (uint256 i = 0; i < convTable.length; i++) {\r\n            require(convTable[i].length == 2 && convTable[i][0] > 0 && convTable[i][1] > 0, \"Invalid data item\");\r\n        }\r\n        for (uint256 j = 0; j < convTable.length; j++) {\r\n            limits[j] = convTable[j][0];\r\n            rates[j] = convTable[j][1];\r\n        }\r\n    }\r\n\r\n    // owner can withdraw eth to any address\r\n    function withdrawETH(address _address, uint256 _amount) external onlyOwner {\r\n        require(_amount * 10 ** 18 <= ethBalance(), \"Not enough eth balance\");\r\n        address payable to = payable(_address);\r\n        to.transfer(_amount * 10 ** 18);\r\n    }\r\n\r\n    // Detect receiving eth\r\n    receive () external payable {\r\n        // Check gnus token before receive eth\r\n        require(msg.value > 0, \"You have sent 0 ether!\");\r\n        uint256 step = defineStep();\r\n        uint256 tokenAmount = msg.value * rates[step];\r\n        require(gnusBalance() >= tokenAmount, \"You have sent too much eth amount\");\r\n        gnusToken.transfer(address(msg.sender), tokenAmount);\r\n    }\r\n\r\n    // Withdraw GNUS tokens\r\n    function withdrawGNUS(address to, uint256 amount) external onlyOwner {\r\n        require(to == address(to),\"Invalid address\");\r\n        uint256 tokenAmount = amount;\r\n        require(gnusBalance() >= tokenAmount, \"You have sent too much eth amount\");\r\n        gnusToken.transfer(address(to), tokenAmount);\r\n    }\r\n}\r\n",
  "sourcePath": "A:/project_2021/0521-GeniusTokens/work/geniustokens/contracts/ICOContract.sol",
  "compiler": {
    "name": "solc",
    "version": "0.8.0+commit.c7dfd78e.Emscripten.clang"
  },
  "schemaVersion": "3.3.4",
  "updatedAt": "2021-05-31T17:52:27.442Z",
  "networkType": "ethereum",
  "devdoc": {
    "kind": "dev",
    "methods": {
      "owner()": {
        "details": "Returns the address of the current owner."
      },
      "renounceOwnership()": {
        "details": "Leaves the contract without owner. It will not be possible to call `onlyOwner` functions anymore. Can only be called by the current owner. NOTE: Renouncing ownership will leave the contract without an owner, thereby removing any functionality that is only available to the owner."
      },
      "transferOwnership(address)": {
        "details": "Transfers ownership of the contract to a new account (`newOwner`). Can only be called by the current owner."
      }
    },
    "version": 1
  },
  "userdoc": {
    "kind": "user",
    "methods": {
      "dynamicConvTable(uint256[][])": {
        "notice": "e.g. [[12500, 1000], [12500, 800], [12500, 640], [12500, 512]] limits = [12500, 12500, 12500, 12500] rates = [1000, 800, 640, 512]"
      }
    },
    "version": 1
  }
}